{
  "_format": "hh-sol-artifact-1",
  "contractName": "CredentialStatus",
  "sourceName": "contracts/DecentralizedCredentials.sol",
  "abi": [
    {
      "inputs": [
        {
          "internalType": "address",
          "name": "_registryAddress",
          "type": "address"
        }
      ],
      "stateMutability": "nonpayable",
      "type": "constructor"
    },
    {
      "anonymous": false,
      "inputs": [
        {
          "indexed": true,
          "internalType": "bytes32",
          "name": "credentialHash",
          "type": "bytes32"
        },
        {
          "indexed": true,
          "internalType": "address",
          "name": "issuer",
          "type": "address"
        },
        {
          "indexed": true,
          "internalType": "address",
          "name": "holder",
          "type": "address"
        }
      ],
      "name": "CredentialIssued",
      "type": "event"
    },
    {
      "anonymous": false,
      "inputs": [
        {
          "indexed": true,
          "internalType": "bytes32",
          "name": "credentialHash",
          "type": "bytes32"
        },
        {
          "indexed": true,
          "internalType": "address",
          "name": "issuer",
          "type": "address"
        }
      ],
      "name": "CredentialRevoked",
      "type": "event"
    },
    {
      "inputs": [
        {
          "internalType": "bytes32",
          "name": "",
          "type": "bytes32"
        }
      ],
      "name": "credentials",
      "outputs": [
        {
          "internalType": "bytes32",
          "name": "credentialHash",
          "type": "bytes32"
        },
        {
          "internalType": "address",
          "name": "issuer",
          "type": "address"
        },
        {
          "internalType": "address",
          "name": "holder",
          "type": "address"
        },
        {
          "internalType": "uint256",
          "name": "issueDate",
          "type": "uint256"
        },
        {
          "internalType": "enum CredentialStatus.CredentialState",
          "name": "state",
          "type": "uint8"
        }
      ],
      "stateMutability": "view",
      "type": "function"
    },
    {
      "inputs": [],
      "name": "didRegistry",
      "outputs": [
        {
          "internalType": "contract DIDRegistry",
          "name": "",
          "type": "address"
        }
      ],
      "stateMutability": "view",
      "type": "function"
    },
    {
      "inputs": [
        {
          "internalType": "bytes32",
          "name": "_credentialHash",
          "type": "bytes32"
        }
      ],
      "name": "getCredentialStatus",
      "outputs": [
        {
          "internalType": "enum CredentialStatus.CredentialState",
          "name": "",
          "type": "uint8"
        }
      ],
      "stateMutability": "view",
      "type": "function"
    },
    {
      "inputs": [
        {
          "internalType": "bytes32",
          "name": "_credentialHash",
          "type": "bytes32"
        }
      ],
      "name": "isCredentialValid",
      "outputs": [
        {
          "internalType": "bool",
          "name": "",
          "type": "bool"
        }
      ],
      "stateMutability": "view",
      "type": "function"
    },
    {
      "inputs": [
        {
          "internalType": "address",
          "name": "_holder",
          "type": "address"
        },
        {
          "internalType": "bytes32",
          "name": "_credentialHash",
          "type": "bytes32"
        }
      ],
      "name": "issueCredential",
      "outputs": [],
      "stateMutability": "nonpayable",
      "type": "function"
    },
    {
      "inputs": [
        {
          "internalType": "bytes32",
          "name": "_credentialHash",
          "type": "bytes32"
        }
      ],
      "name": "revokeCredential",
      "outputs": [],
      "stateMutability": "nonpayable",
      "type": "function"
    }
  ],
  "bytecode": "0x60806040523480156200001157600080fd5b50604051620011073803806200110783398181016040528101906200003791906200015a565b600073ffffffffffffffffffffffffffffffffffffffff168173ffffffffffffffffffffffffffffffffffffffff1603620000a9576040517f08c379a0000000000000000000000000000000000000000000000000000000008152600401620000a09062000213565b60405180910390fd5b806000806101000a81548173ffffffffffffffffffffffffffffffffffffffff021916908373ffffffffffffffffffffffffffffffffffffffff1602179055505062000235565b600080fd5b600073ffffffffffffffffffffffffffffffffffffffff82169050919050565b60006200012282620000f5565b9050919050565b620001348162000115565b81146200014057600080fd5b50565b600081519050620001548162000129565b92915050565b600060208284031215620001735762000172620000f0565b5b6000620001838482850162000143565b91505092915050565b600082825260208201905092915050565b7f43726564656e7469616c5374617475733a20496e76616c69642072656769737460008201527f7279206164647265737300000000000000000000000000000000000000000000602082015250565b6000620001fb602a836200018c565b915062000208826200019d565b604082019050919050565b600060208201905081810360008301526200022e81620001ec565b9050919050565b610ec280620002456000396000f3fe608060405234801561001057600080fd5b50600436106100625760003560e01c8063299d034814610067578063383fcff01461009b578063577f9fb1146100cb5780636dc158eb146100e9578063b4e5a8de14610119578063ca6eec7814610135575b600080fd5b610081600480360381019061007c9190610840565b610151565b60405161009295949392919061094d565b60405180910390f35b6100b560048036038101906100b09190610840565b6101d4565b6040516100c291906109a0565b60405180910390f35b6100d3610201565b6040516100e09190610a1a565b60405180910390f35b61010360048036038101906100fe9190610840565b610225565b6040516101109190610a50565b60405180910390f35b610133600480360381019061012e9190610a97565b610279565b005b61014f600480360381019061014a9190610840565b61066f565b005b60016020528060005260406000206000915090508060000154908060010160009054906101000a900473ffffffffffffffffffffffffffffffffffffffff16908060020160009054906101000a900473ffffffffffffffffffffffffffffffffffffffff16908060030154908060040160009054906101000a900460ff16905085565b60006001600083815260200190815260200160002060040160009054906101000a900460ff169050919050565b60008054906101000a900473ffffffffffffffffffffffffffffffffffffffff1681565b60006001600281111561023b5761023a6108d6565b5b6001600084815260200190815260200160002060040160009054906101000a900460ff166002811115610271576102706108d6565b5b149050919050565b60008060009054906101000a900473ffffffffffffffffffffffffffffffffffffffff1673ffffffffffffffffffffffffffffffffffffffff166395a8c58d3360026040518363ffffffff1660e01b81526004016102d8929190610b1f565b602060405180830381865afa1580156102f5573d6000803e3d6000fd5b505050506040513d601f19601f820116820180604052508101906103199190610b74565b90508061035b576040517f08c379a000000000000000000000000000000000000000000000000000000000815260040161035290610c24565b60405180910390fd5b60008054906101000a900473ffffffffffffffffffffffffffffffffffffffff1673ffffffffffffffffffffffffffffffffffffffff166395a8c58d8460016040518363ffffffff1660e01b81526004016103b7929190610b1f565b602060405180830381865afa1580156103d4573d6000803e3d6000fd5b505050506040513d601f19601f820116820180604052508101906103f89190610b74565b610437576040517f08c379a000000000000000000000000000000000000000000000000000000000815260040161042e90610cb6565b60405180910390fd5b6000600281111561044b5761044a6108d6565b5b6001600084815260200190815260200160002060040160009054906101000a900460ff166002811115610481576104806108d6565b5b146104c1576040517f08c379a00000000000000000000000000000000000000000000000000000000081526004016104b890610d48565b60405180910390fd5b6040518060a001604052808381526020013373ffffffffffffffffffffffffffffffffffffffff1681526020018473ffffffffffffffffffffffffffffffffffffffff16815260200142815260200160016002811115610524576105236108d6565b5b815250600160008481526020019081526020016000206000820151816000015560208201518160010160006101000a81548173ffffffffffffffffffffffffffffffffffffffff021916908373ffffffffffffffffffffffffffffffffffffffff16021790555060408201518160020160006101000a81548173ffffffffffffffffffffffffffffffffffffffff021916908373ffffffffffffffffffffffffffffffffffffffff1602179055506060820151816003015560808201518160040160006101000a81548160ff02191690836002811115610607576106066108d6565b5b02179055509050508273ffffffffffffffffffffffffffffffffffffffff163373ffffffffffffffffffffffffffffffffffffffff16837f2ca620382cc7dc0c7e3dec8ad0cccc7346c771f0e2130ed0cb76c3152c15b27360405160405180910390a4505050565b60006001600083815260200190815260200160002090506001600281111561069a576106996108d6565b5b8160040160009054906101000a900460ff1660028111156106be576106bd6108d6565b5b146106fe576040517f08c379a00000000000000000000000000000000000000000000000000000000081526004016106f590610dda565b60405180910390fd5b3373ffffffffffffffffffffffffffffffffffffffff168160010160009054906101000a900473ffffffffffffffffffffffffffffffffffffffff1673ffffffffffffffffffffffffffffffffffffffff1614610790576040517f08c379a000000000000000000000000000000000000000000000000000000000815260040161078790610e6c565b60405180910390fd5b60028160040160006101000a81548160ff021916908360028111156107b8576107b76108d6565b5b02179055503373ffffffffffffffffffffffffffffffffffffffff16827fd3196f598a360c115a1de20d5a58021203793f1bf1a08efe55ee14545779606d60405160405180910390a35050565b600080fd5b6000819050919050565b61081d8161080a565b811461082857600080fd5b50565b60008135905061083a81610814565b92915050565b60006020828403121561085657610855610805565b5b60006108648482850161082b565b91505092915050565b6108768161080a565b82525050565b600073ffffffffffffffffffffffffffffffffffffffff82169050919050565b60006108a78261087c565b9050919050565b6108b78161089c565b82525050565b6000819050919050565b6108d0816108bd565b82525050565b7f4e487b7100000000000000000000000000000000000000000000000000000000600052602160045260246000fd5b60038110610916576109156108d6565b5b50565b600081905061092782610905565b919050565b600061093782610919565b9050919050565b6109478161092c565b82525050565b600060a082019050610962600083018861086d565b61096f60208301876108ae565b61097c60408301866108ae565b61098960608301856108c7565b610996608083018461093e565b9695505050505050565b60006020820190506109b5600083018461093e565b92915050565b6000819050919050565b60006109e06109db6109d68461087c565b6109bb565b61087c565b9050919050565b60006109f2826109c5565b9050919050565b6000610a04826109e7565b9050919050565b610a14816109f9565b82525050565b6000602082019050610a2f6000830184610a0b565b92915050565b60008115159050919050565b610a4a81610a35565b82525050565b6000602082019050610a656000830184610a41565b92915050565b610a748161089c565b8114610a7f57600080fd5b50565b600081359050610a9181610a6b565b92915050565b60008060408385031215610aae57610aad610805565b5b6000610abc85828601610a82565b9250506020610acd8582860161082b565b9150509250929050565b60048110610ae857610ae76108d6565b5b50565b6000819050610af982610ad7565b919050565b6000610b0982610aeb565b9050919050565b610b1981610afe565b82525050565b6000604082019050610b3460008301856108ae565b610b416020830184610b10565b9392505050565b610b5181610a35565b8114610b5c57600080fd5b50565b600081519050610b6e81610b48565b92915050565b600060208284031215610b8a57610b89610805565b5b6000610b9884828501610b5f565b91505092915050565b600082825260208201905092915050565b7f43726564656e7469616c5374617475733a2043616c6c6572206973206e6f742060008201527f61207265676973746572656420556e6976657273697479000000000000000000602082015250565b6000610c0e603783610ba1565b9150610c1982610bb2565b604082019050919050565b60006020820190508181036000830152610c3d81610c01565b9050919050565b7f43726564656e7469616c5374617475733a20486f6c646572206973206e6f742060008201527f6120726567697374657265642053747564656e74000000000000000000000000602082015250565b6000610ca0603483610ba1565b9150610cab82610c44565b604082019050919050565b60006020820190508181036000830152610ccf81610c93565b9050919050565b7f43726564656e7469616c5374617475733a2043726564656e7469616c2068617360008201527f6820616c72656164792065786973747300000000000000000000000000000000602082015250565b6000610d32603083610ba1565b9150610d3d82610cd6565b604082019050919050565b60006020820190508181036000830152610d6181610d25565b9050919050565b7f43726564656e7469616c5374617475733a2043726564656e7469616c2069732060008201527f6e6f742076616c6964206f7220646f6573206e6f742065786973740000000000602082015250565b6000610dc4603b83610ba1565b9150610dcf82610d68565b604082019050919050565b60006020820190508181036000830152610df381610db7565b9050919050565b7f43726564656e7469616c5374617475733a2043616c6c6572206973206e6f742060008201527f746865206f726967696e616c2069737375657200000000000000000000000000602082015250565b6000610e56603383610ba1565b9150610e6182610dfa565b604082019050919050565b60006020820190508181036000830152610e8581610e49565b905091905056fea264697066735822122030c1b1c80627469e57939af72f61a55ff42164168844107ec05ebe2823231f5264736f6c63430008130033",
  "linkReferences": {},
  "deployedLinkReferences": {}
}