{
  "_format": "hh-sol-artifact-1",
  "contractName": "CredentialStatus",
  "sourceName": "contracts/DecentralizedCredentials.sol",
  "abi": [
    {
      "inputs": [
        {
          "internalType": "address",
          "name": "_registryAddress",
          "type": "address"
        }
      ],
      "stateMutability": "nonpayable",
      "type": "constructor"
    },
    {
      "anonymous": false,
      "inputs": [
        {
          "indexed": true,
          "internalType": "bytes32",
          "name": "credentialHash",
          "type": "bytes32"
        },
        {
          "indexed": true,
          "internalType": "address",
          "name": "issuer",
          "type": "address"
        },
        {
          "indexed": true,
          "internalType": "address",
          "name": "holder",
          "type": "address"
        },
        {
          "indexed": false,
          "internalType": "string",
          "name": "ipfsHash",
          "type": "string"
        }
      ],
      "name": "CredentialIssued",
      "type": "event"
    },
    {
      "anonymous": false,
      "inputs": [
        {
          "indexed": true,
          "internalType": "bytes32",
          "name": "credentialHash",
          "type": "bytes32"
        },
        {
          "indexed": true,
          "internalType": "address",
          "name": "issuer",
          "type": "address"
        }
      ],
      "name": "CredentialRevoked",
      "type": "event"
    },
    {
      "anonymous": false,
      "inputs": [
        {
          "indexed": true,
          "internalType": "bytes32",
          "name": "credentialHash",
          "type": "bytes32"
        },
        {
          "indexed": true,
          "internalType": "address",
          "name": "verifier",
          "type": "address"
        },
        {
          "indexed": false,
          "internalType": "bool",
          "name": "isValid",
          "type": "bool"
        }
      ],
      "name": "CredentialVerified",
      "type": "event"
    },
    {
      "inputs": [
        {
          "internalType": "bytes32",
          "name": "",
          "type": "bytes32"
        }
      ],
      "name": "credentials",
      "outputs": [
        {
          "internalType": "bytes32",
          "name": "credentialHash",
          "type": "bytes32"
        },
        {
          "internalType": "string",
          "name": "ipfsHash",
          "type": "string"
        },
        {
          "internalType": "bytes",
          "name": "credentialSchema",
          "type": "bytes"
        },
        {
          "internalType": "address",
          "name": "issuer",
          "type": "address"
        },
        {
          "internalType": "address",
          "name": "holder",
          "type": "address"
        },
        {
          "internalType": "uint256",
          "name": "issueDate",
          "type": "uint256"
        },
        {
          "internalType": "enum CredentialStatus.CredentialState",
          "name": "state",
          "type": "uint8"
        }
      ],
      "stateMutability": "view",
      "type": "function"
    },
    {
      "inputs": [],
      "name": "didRegistry",
      "outputs": [
        {
          "internalType": "contract DIDRegistry",
          "name": "",
          "type": "address"
        }
      ],
      "stateMutability": "view",
      "type": "function"
    },
    {
      "inputs": [
        {
          "internalType": "bytes32",
          "name": "_credentialHash",
          "type": "bytes32"
        }
      ],
      "name": "getCredentialIPFSHash",
      "outputs": [
        {
          "internalType": "string",
          "name": "",
          "type": "string"
        }
      ],
      "stateMutability": "view",
      "type": "function"
    },
    {
      "inputs": [
        {
          "internalType": "bytes32",
          "name": "_credentialHash",
          "type": "bytes32"
        }
      ],
      "name": "getCredentialMetadata",
      "outputs": [
        {
          "components": [
            {
              "internalType": "bytes32",
              "name": "credentialHash",
              "type": "bytes32"
            },
            {
              "internalType": "string",
              "name": "ipfsHash",
              "type": "string"
            },
            {
              "internalType": "bytes",
              "name": "credentialSchema",
              "type": "bytes"
            },
            {
              "internalType": "address",
              "name": "issuer",
              "type": "address"
            },
            {
              "internalType": "address",
              "name": "holder",
              "type": "address"
            },
            {
              "internalType": "uint256",
              "name": "issueDate",
              "type": "uint256"
            },
            {
              "internalType": "enum CredentialStatus.CredentialState",
              "name": "state",
              "type": "uint8"
            }
          ],
          "internalType": "struct CredentialStatus.Credential",
          "name": "",
          "type": "tuple"
        }
      ],
      "stateMutability": "view",
      "type": "function"
    },
    {
      "inputs": [
        {
          "internalType": "bytes32",
          "name": "_credentialHash",
          "type": "bytes32"
        }
      ],
      "name": "getCredentialStatus",
      "outputs": [
        {
          "internalType": "enum CredentialStatus.CredentialState",
          "name": "",
          "type": "uint8"
        }
      ],
      "stateMutability": "view",
      "type": "function"
    },
    {
      "inputs": [
        {
          "internalType": "bytes32",
          "name": "_credentialHash",
          "type": "bytes32"
        }
      ],
      "name": "isCredentialValid",
      "outputs": [
        {
          "internalType": "bool",
          "name": "",
          "type": "bool"
        }
      ],
      "stateMutability": "view",
      "type": "function"
    },
    {
      "inputs": [
        {
          "internalType": "address",
          "name": "_holder",
          "type": "address"
        },
        {
          "internalType": "bytes32",
          "name": "_credentialHash",
          "type": "bytes32"
        },
        {
          "internalType": "string",
          "name": "_ipfsHash",
          "type": "string"
        },
        {
          "internalType": "bytes",
          "name": "_schema",
          "type": "bytes"
        }
      ],
      "name": "issueCredential",
      "outputs": [],
      "stateMutability": "nonpayable",
      "type": "function"
    },
    {
      "inputs": [
        {
          "internalType": "bytes32",
          "name": "_credentialHash",
          "type": "bytes32"
        }
      ],
      "name": "revokeCredential",
      "outputs": [],
      "stateMutability": "nonpayable",
      "type": "function"
    },
    {
      "inputs": [
        {
          "internalType": "string",
          "name": "_credentialData",
          "type": "string"
        },
        {
          "internalType": "bytes32",
          "name": "_credentialHash",
          "type": "bytes32"
        }
      ],
      "name": "verifyCredentialData",
      "outputs": [
        {
          "internalType": "bool",
          "name": "",
          "type": "bool"
        }
      ],
      "stateMutability": "nonpayable",
      "type": "function"
    }
  ],
  "bytecode": "0x60806040523480156200001157600080fd5b50604051620021263803806200212683398181016040528101906200003791906200015a565b600073ffffffffffffffffffffffffffffffffffffffff168173ffffffffffffffffffffffffffffffffffffffff1603620000a9576040517f08c379a0000000000000000000000000000000000000000000000000000000008152600401620000a09062000213565b60405180910390fd5b806000806101000a81548173ffffffffffffffffffffffffffffffffffffffff021916908373ffffffffffffffffffffffffffffffffffffffff1602179055505062000235565b600080fd5b600073ffffffffffffffffffffffffffffffffffffffff82169050919050565b60006200012282620000f5565b9050919050565b620001348162000115565b81146200014057600080fd5b50565b600081519050620001548162000129565b92915050565b600060208284031215620001735762000172620000f0565b5b6000620001838482850162000143565b91505092915050565b600082825260208201905092915050565b7f43726564656e7469616c5374617475733a20496e76616c69642072656769737460008201527f7279206164647265737300000000000000000000000000000000000000000000602082015250565b6000620001fb602a836200018c565b915062000208826200019d565b604082019050919050565b600060208201905081810360008301526200022e81620001ec565b9050919050565b611ee180620002456000396000f3fe608060405234801561001057600080fd5b50600436106100935760003560e01c8063577f9fb111610066578063577f9fb11461014a5780636cc8c9f3146101685780636dc158eb14610198578063ca6eec78146101c8578063e807e623146101e457610093565b806312e8edbf14610098578063299d0348146100b4578063383fcff0146100ea57806349e430a61461011a575b600080fd5b6100b260048036038101906100ad919061110a565b610214565b005b6100ce60048036038101906100c991906111a9565b61064f565b6040516100e19796959493929190611358565b60405180910390f35b61010460048036038101906100ff91906111a9565b6107ee565b60405161011191906113d5565b60405180910390f35b610134600480360381019061012f91906111a9565b61081b565b6040516101419190611563565b60405180910390f35b610152610a67565b60405161015f91906115e4565b60405180910390f35b610182600480360381019061017d91906115ff565b610a8b565b60405161018f9190611676565b60405180910390f35b6101b260048036038101906101ad91906111a9565b610b6b565b6040516101bf9190611676565b60405180910390f35b6101e260048036038101906101dd91906111a9565b610bbf565b005b6101fe60048036038101906101f991906111a9565b610d55565b60405161020b9190611691565b60405180910390f35b60008060009054906101000a900473ffffffffffffffffffffffffffffffffffffffff1673ffffffffffffffffffffffffffffffffffffffff166395a8c58d3360026040518363ffffffff1660e01b81526004016102739291906116fb565b602060405180830381865afa158015610290573d6000803e3d6000fd5b505050506040513d601f19601f820116820180604052508101906102b49190611750565b9050806102f6576040517f08c379a00000000000000000000000000000000000000000000000000000000081526004016102ed906117ef565b60405180910390fd5b60008054906101000a900473ffffffffffffffffffffffffffffffffffffffff1673ffffffffffffffffffffffffffffffffffffffff166395a8c58d8660016040518363ffffffff1660e01b81526004016103529291906116fb565b602060405180830381865afa15801561036f573d6000803e3d6000fd5b505050506040513d601f19601f820116820180604052508101906103939190611750565b6103d2576040517f08c379a00000000000000000000000000000000000000000000000000000000081526004016103c990611881565b60405180910390fd5b600060028111156103e6576103e56112e1565b5b6001600086815260200190815260200160002060060160009054906101000a900460ff16600281111561041c5761041b6112e1565b5b1461045c576040517f08c379a000000000000000000000000000000000000000000000000000000000815260040161045390611913565b60405180910390fd5b6040518060e001604052808581526020018481526020018381526020013373ffffffffffffffffffffffffffffffffffffffff1681526020018673ffffffffffffffffffffffffffffffffffffffff168152602001428152602001600160028111156104cb576104ca6112e1565b5b815250600160008681526020019081526020016000206000820151816000015560208201518160010190816105009190611b35565b5060408201518160020190816105169190611c62565b5060608201518160030160006101000a81548173ffffffffffffffffffffffffffffffffffffffff021916908373ffffffffffffffffffffffffffffffffffffffff16021790555060808201518160040160006101000a81548173ffffffffffffffffffffffffffffffffffffffff021916908373ffffffffffffffffffffffffffffffffffffffff16021790555060a0820151816005015560c08201518160060160006101000a81548160ff021916908360028111156105da576105d96112e1565b5b02179055509050508473ffffffffffffffffffffffffffffffffffffffff163373ffffffffffffffffffffffffffffffffffffffff16857f8fbd2b7cfb4db91a4f4b683fc96c73b5adc9f9aee31b983df603621b12c54987866040516106409190611691565b60405180910390a45050505050565b600160205280600052604060002060009150905080600001549080600101805461067890611962565b80601f01602080910402602001604051908101604052809291908181526020018280546106a490611962565b80156106f15780601f106106c6576101008083540402835291602001916106f1565b820191906000526020600020905b8154815290600101906020018083116106d457829003601f168201915b50505050509080600201805461070690611962565b80601f016020809104026020016040519081016040528092919081815260200182805461073290611962565b801561077f5780601f106107545761010080835404028352916020019161077f565b820191906000526020600020905b81548152906001019060200180831161076257829003601f168201915b5050505050908060030160009054906101000a900473ffffffffffffffffffffffffffffffffffffffff16908060040160009054906101000a900473ffffffffffffffffffffffffffffffffffffffff16908060050154908060060160009054906101000a900460ff16905087565b60006001600083815260200190815260200160002060060160009054906101000a900460ff169050919050565b610823610dfd565b600160008381526020019081526020016000206040518060e00160405290816000820154815260200160018201805461085b90611962565b80601f016020809104026020016040519081016040528092919081815260200182805461088790611962565b80156108d45780601f106108a9576101008083540402835291602001916108d4565b820191906000526020600020905b8154815290600101906020018083116108b757829003601f168201915b505050505081526020016002820180546108ed90611962565b80601f016020809104026020016040519081016040528092919081815260200182805461091990611962565b80156109665780601f1061093b57610100808354040283529160200191610966565b820191906000526020600020905b81548152906001019060200180831161094957829003601f168201915b505050505081526020016003820160009054906101000a900473ffffffffffffffffffffffffffffffffffffffff1673ffffffffffffffffffffffffffffffffffffffff1673ffffffffffffffffffffffffffffffffffffffff1681526020016004820160009054906101000a900473ffffffffffffffffffffffffffffffffffffffff1673ffffffffffffffffffffffffffffffffffffffff1673ffffffffffffffffffffffffffffffffffffffff168152602001600582015481526020016006820160009054906101000a900460ff166002811115610a4a57610a496112e1565b5b6002811115610a5c57610a5b6112e1565b5b815250509050919050565b60008054906101000a900473ffffffffffffffffffffffffffffffffffffffff1681565b60008083604051602001610a9f9190611d70565b60405160208183030381529060405280519060200120905060008382148015610b0f575060016002811115610ad757610ad66112e1565b5b6001600086815260200190815260200160002060060160009054906101000a900460ff166002811115610b0d57610b0c6112e1565b5b145b90503373ffffffffffffffffffffffffffffffffffffffff16847f242277850def6038cd31afaf72f2a03f05e30defe9e0c8b40bb4fc604540301983604051610b589190611676565b60405180910390a3809250505092915050565b600060016002811115610b8157610b806112e1565b5b6001600084815260200190815260200160002060060160009054906101000a900460ff166002811115610bb757610bb66112e1565b5b149050919050565b600060016000838152602001908152602001600020905060016002811115610bea57610be96112e1565b5b8160060160009054906101000a900460ff166002811115610c0e57610c0d6112e1565b5b14610c4e576040517f08c379a0000000000000000000000000000000000000000000000000000000008152600401610c4590611df9565b60405180910390fd5b3373ffffffffffffffffffffffffffffffffffffffff168160030160009054906101000a900473ffffffffffffffffffffffffffffffffffffffff1673ffffffffffffffffffffffffffffffffffffffff1614610ce0576040517f08c379a0000000000000000000000000000000000000000000000000000000008152600401610cd790611e8b565b60405180910390fd5b60028160060160006101000a81548160ff02191690836002811115610d0857610d076112e1565b5b02179055503373ffffffffffffffffffffffffffffffffffffffff16827fd3196f598a360c115a1de20d5a58021203793f1bf1a08efe55ee14545779606d60405160405180910390a35050565b6060600160008381526020019081526020016000206001018054610d7890611962565b80601f0160208091040260200160405190810160405280929190818152602001828054610da490611962565b8015610df15780601f10610dc657610100808354040283529160200191610df1565b820191906000526020600020905b815481529060010190602001808311610dd457829003601f168201915b50505050509050919050565b6040518060e00160405280600080191681526020016060815260200160608152602001600073ffffffffffffffffffffffffffffffffffffffff168152602001600073ffffffffffffffffffffffffffffffffffffffff1681526020016000815260200160006002811115610e7557610e746112e1565b5b81525090565b6000604051905090565b600080fd5b600080fd5b600073ffffffffffffffffffffffffffffffffffffffff82169050919050565b6000610eba82610e8f565b9050919050565b610eca81610eaf565b8114610ed557600080fd5b50565b600081359050610ee781610ec1565b92915050565b6000819050919050565b610f0081610eed565b8114610f0b57600080fd5b50565b600081359050610f1d81610ef7565b92915050565b600080fd5b600080fd5b6000601f19601f8301169050919050565b7f4e487b7100000000000000000000000000000000000000000000000000000000600052604160045260246000fd5b610f7682610f2d565b810181811067ffffffffffffffff82111715610f9557610f94610f3e565b5b80604052505050565b6000610fa8610e7b565b9050610fb48282610f6d565b919050565b600067ffffffffffffffff821115610fd457610fd3610f3e565b5b610fdd82610f2d565b9050602081019050919050565b82818337600083830152505050565b600061100c61100784610fb9565b610f9e565b90508281526020810184848401111561102857611027610f28565b5b611033848285610fea565b509392505050565b600082601f8301126110505761104f610f23565b5b8135611060848260208601610ff9565b91505092915050565b600067ffffffffffffffff82111561108457611083610f3e565b5b61108d82610f2d565b9050602081019050919050565b60006110ad6110a884611069565b610f9e565b9050828152602081018484840111156110c9576110c8610f28565b5b6110d4848285610fea565b509392505050565b600082601f8301126110f1576110f0610f23565b5b813561110184826020860161109a565b91505092915050565b6000806000806080858703121561112457611123610e85565b5b600061113287828801610ed8565b945050602061114387828801610f0e565b935050604085013567ffffffffffffffff81111561116457611163610e8a565b5b6111708782880161103b565b925050606085013567ffffffffffffffff81111561119157611190610e8a565b5b61119d878288016110dc565b91505092959194509250565b6000602082840312156111bf576111be610e85565b5b60006111cd84828501610f0e565b91505092915050565b6111df81610eed565b82525050565b600081519050919050565b600082825260208201905092915050565b60005b8381101561121f578082015181840152602081019050611204565b60008484015250505050565b6000611236826111e5565b61124081856111f0565b9350611250818560208601611201565b61125981610f2d565b840191505092915050565b600081519050919050565b600082825260208201905092915050565b600061128b82611264565b611295818561126f565b93506112a5818560208601611201565b6112ae81610f2d565b840191505092915050565b6112c281610eaf565b82525050565b6000819050919050565b6112db816112c8565b82525050565b7f4e487b7100000000000000000000000000000000000000000000000000000000600052602160045260246000fd5b60038110611321576113206112e1565b5b50565b600081905061133282611310565b919050565b600061134282611324565b9050919050565b61135281611337565b82525050565b600060e08201905061136d600083018a6111d6565b818103602083015261137f818961122b565b905081810360408301526113938188611280565b90506113a260608301876112b9565b6113af60808301866112b9565b6113bc60a08301856112d2565b6113c960c0830184611349565b98975050505050505050565b60006020820190506113ea6000830184611349565b92915050565b6113f981610eed565b82525050565b600082825260208201905092915050565b600061141b826111e5565b61142581856113ff565b9350611435818560208601611201565b61143e81610f2d565b840191505092915050565b600082825260208201905092915050565b600061146582611264565b61146f8185611449565b935061147f818560208601611201565b61148881610f2d565b840191505092915050565b61149c81610eaf565b82525050565b6114ab816112c8565b82525050565b6114ba81611337565b82525050565b600060e0830160008301516114d860008601826113f0565b50602083015184820360208601526114f08282611410565b9150506040830151848203604086015261150a828261145a565b915050606083015161151f6060860182611493565b5060808301516115326080860182611493565b5060a083015161154560a08601826114a2565b5060c083015161155860c08601826114b1565b508091505092915050565b6000602082019050818103600083015261157d81846114c0565b905092915050565b6000819050919050565b60006115aa6115a56115a084610e8f565b611585565b610e8f565b9050919050565b60006115bc8261158f565b9050919050565b60006115ce826115b1565b9050919050565b6115de816115c3565b82525050565b60006020820190506115f960008301846115d5565b92915050565b6000806040838503121561161657611615610e85565b5b600083013567ffffffffffffffff81111561163457611633610e8a565b5b6116408582860161103b565b925050602061165185828601610f0e565b9150509250929050565b60008115159050919050565b6116708161165b565b82525050565b600060208201905061168b6000830184611667565b92915050565b600060208201905081810360008301526116ab818461122b565b905092915050565b600481106116c4576116c36112e1565b5b50565b60008190506116d5826116b3565b919050565b60006116e5826116c7565b9050919050565b6116f5816116da565b82525050565b600060408201905061171060008301856112b9565b61171d60208301846116ec565b9392505050565b61172d8161165b565b811461173857600080fd5b50565b60008151905061174a81611724565b92915050565b60006020828403121561176657611765610e85565b5b60006117748482850161173b565b91505092915050565b7f43726564656e7469616c5374617475733a2043616c6c6572206973206e6f742060008201527f61207265676973746572656420556e6976657273697479000000000000000000602082015250565b60006117d96037836111f0565b91506117e48261177d565b604082019050919050565b60006020820190508181036000830152611808816117cc565b9050919050565b7f43726564656e7469616c5374617475733a20486f6c646572206973206e6f742060008201527f6120726567697374657265642053747564656e74000000000000000000000000602082015250565b600061186b6034836111f0565b91506118768261180f565b604082019050919050565b6000602082019050818103600083015261189a8161185e565b9050919050565b7f43726564656e7469616c5374617475733a2043726564656e7469616c2068617360008201527f6820616c72656164792065786973747300000000000000000000000000000000602082015250565b60006118fd6030836111f0565b9150611908826118a1565b604082019050919050565b6000602082019050818103600083015261192c816118f0565b9050919050565b7f4e487b7100000000000000000000000000000000000000000000000000000000600052602260045260246000fd5b6000600282049050600182168061197a57607f821691505b60208210810361198d5761198c611933565b5b50919050565b60008190508160005260206000209050919050565b60006020601f8301049050919050565b600082821b905092915050565b6000600883026119f57fffffffffffffffffffffffffffffffffffffffffffffffffffffffffffffffff826119b8565b6119ff86836119b8565b95508019841693508086168417925050509392505050565b6000611a32611a2d611a28846112c8565b611585565b6112c8565b9050919050565b6000819050919050565b611a4c83611a17565b611a60611a5882611a39565b8484546119c5565b825550505050565b600090565b611a75611a68565b611a80818484611a43565b505050565b5b81811015611aa457611a99600082611a6d565b600181019050611a86565b5050565b601f821115611ae957611aba81611993565b611ac3846119a8565b81016020851015611ad2578190505b611ae6611ade856119a8565b830182611a85565b50505b505050565b600082821c905092915050565b6000611b0c60001984600802611aee565b1980831691505092915050565b6000611b258383611afb565b9150826002028217905092915050565b611b3e826111e5565b67ffffffffffffffff811115611b5757611b56610f3e565b5b611b618254611962565b611b6c828285611aa8565b600060209050601f831160018114611b9f5760008415611b8d578287015190505b611b978582611b19565b865550611bff565b601f198416611bad86611993565b60005b82811015611bd557848901518255600182019150602085019450602081019050611bb0565b86831015611bf25784890151611bee601f891682611afb565b8355505b6001600288020188555050505b505050505050565b60008190508160005260206000209050919050565b601f821115611c5d57611c2e81611c07565b611c37846119a8565b81016020851015611c46578190505b611c5a611c52856119a8565b830182611a85565b50505b505050565b611c6b82611264565b67ffffffffffffffff811115611c8457611c83610f3e565b5b611c8e8254611962565b611c99828285611c1c565b600060209050601f831160018114611ccc5760008415611cba578287015190505b611cc48582611b19565b865550611d2c565b601f198416611cda86611c07565b60005b82811015611d0257848901518255600182019150602085019450602081019050611cdd565b86831015611d1f5784890151611d1b601f891682611afb565b8355505b6001600288020188555050505b505050505050565b600081905092915050565b6000611d4a826111e5565b611d548185611d34565b9350611d64818560208601611201565b80840191505092915050565b6000611d7c8284611d3f565b915081905092915050565b7f43726564656e7469616c5374617475733a2043726564656e7469616c2069732060008201527f6e6f742076616c6964206f7220646f6573206e6f742065786973740000000000602082015250565b6000611de3603b836111f0565b9150611dee82611d87565b604082019050919050565b60006020820190508181036000830152611e1281611dd6565b9050919050565b7f43726564656e7469616c5374617475733a2043616c6c6572206973206e6f742060008201527f746865206f726967696e616c2069737375657200000000000000000000000000602082015250565b6000611e756033836111f0565b9150611e8082611e19565b604082019050919050565b60006020820190508181036000830152611ea481611e68565b905091905056fea26469706673582212203fe106e33212a3eda7fd1999991fc8e82e0c1574ff4ebf617a36ef07d634daac64736f6c63430008130033",
  "linkReferences": {},
  "deployedLinkReferences": {}
}