{
  "_format": "hh-sol-artifact-1",
  "contractName": "DIDRegistry",
  "sourceName": "contracts/DecentralizedCredentials.sol",
  "abi": [
    {
      "anonymous": false,
      "inputs": [
        {
          "indexed": true,
          "internalType": "address",
          "name": "userAddress",
          "type": "address"
        },
        {
          "indexed": true,
          "internalType": "enum DIDRegistry.Role",
          "name": "role",
          "type": "uint8"
        }
      ],
      "name": "IdentityRegistered",
      "type": "event"
    },
    {
      "inputs": [
        {
          "internalType": "address",
          "name": "_userAddress",
          "type": "address"
        }
      ],
      "name": "getRole",
      "outputs": [
        {
          "internalType": "enum DIDRegistry.Role",
          "name": "",
          "type": "uint8"
        }
      ],
      "stateMutability": "view",
      "type": "function"
    },
    {
      "inputs": [
        {
          "internalType": "address",
          "name": "_userAddress",
          "type": "address"
        },
        {
          "internalType": "enum DIDRegistry.Role",
          "name": "_role",
          "type": "uint8"
        }
      ],
      "name": "hasRole",
      "outputs": [
        {
          "internalType": "bool",
          "name": "",
          "type": "bool"
        }
      ],
      "stateMutability": "view",
      "type": "function"
    },
    {
      "inputs": [
        {
          "internalType": "address",
          "name": "",
          "type": "address"
        }
      ],
      "name": "identities",
      "outputs": [
        {
          "internalType": "address",
          "name": "walletAddress",
          "type": "address"
        },
        {
          "internalType": "enum DIDRegistry.Role",
          "name": "role",
          "type": "uint8"
        },
        {
          "internalType": "bool",
          "name": "isRegistered",
          "type": "bool"
        }
      ],
      "stateMutability": "view",
      "type": "function"
    },
    {
      "inputs": [
        {
          "internalType": "enum DIDRegistry.Role",
          "name": "_role",
          "type": "uint8"
        }
      ],
      "name": "registerIdentity",
      "outputs": [],
      "stateMutability": "nonpayable",
      "type": "function"
    }
  ],
  "bytecode": "0x608060405234801561001057600080fd5b5061081c806100206000396000f3fe608060405234801561001057600080fd5b506004361061004c5760003560e01c80634427673314610051578063619363601461008157806395a8c58d1461009d578063f653b81e146100cd575b600080fd5b61006b6004803603810190610066919061050a565b6100ff565b60405161007891906105ae565b60405180910390f35b61009b600480360381019061009691906105ee565b610157565b005b6100b760048036038101906100b2919061061b565b6103c4565b6040516100c49190610676565b60405180910390f35b6100e760048036038101906100e2919061050a565b610443565b6040516100f6939291906106a0565b60405180910390f35b60008060008373ffffffffffffffffffffffffffffffffffffffff1673ffffffffffffffffffffffffffffffffffffffff16815260200190815260200160002060000160149054906101000a900460ff169050919050565b6000803373ffffffffffffffffffffffffffffffffffffffff1673ffffffffffffffffffffffffffffffffffffffff16815260200190815260200160002060000160159054906101000a900460ff16156101e6576040517f08c379a00000000000000000000000000000000000000000000000000000000081526004016101dd9061075a565b60405180910390fd5b600060038111156101fa576101f9610537565b5b81600381111561020d5761020c610537565b5b0361024d576040517f08c379a0000000000000000000000000000000000000000000000000000000008152600401610244906107c6565b60405180910390fd5b60405180606001604052803373ffffffffffffffffffffffffffffffffffffffff16815260200182600381111561028757610286610537565b5b8152602001600115158152506000803373ffffffffffffffffffffffffffffffffffffffff1673ffffffffffffffffffffffffffffffffffffffff16815260200190815260200160002060008201518160000160006101000a81548173ffffffffffffffffffffffffffffffffffffffff021916908373ffffffffffffffffffffffffffffffffffffffff16021790555060208201518160000160146101000a81548160ff0219169083600381111561034357610342610537565b5b021790555060408201518160000160156101000a81548160ff02191690831515021790555090505080600381111561037e5761037d610537565b5b3373ffffffffffffffffffffffffffffffffffffffff167f86a58c82e62b892fa072dfec4db14fe739f8ff6cd5486346411c210390c8cc3360405160405180910390a350565b60008160038111156103d9576103d8610537565b5b6000808573ffffffffffffffffffffffffffffffffffffffff1673ffffffffffffffffffffffffffffffffffffffff16815260200190815260200160002060000160149054906101000a900460ff16600381111561043a57610439610537565b5b14905092915050565b60006020528060005260406000206000915090508060000160009054906101000a900473ffffffffffffffffffffffffffffffffffffffff16908060000160149054906101000a900460ff16908060000160159054906101000a900460ff16905083565b600080fd5b600073ffffffffffffffffffffffffffffffffffffffff82169050919050565b60006104d7826104ac565b9050919050565b6104e7816104cc565b81146104f257600080fd5b50565b600081359050610504816104de565b92915050565b6000602082840312156105205761051f6104a7565b5b600061052e848285016104f5565b91505092915050565b7f4e487b7100000000000000000000000000000000000000000000000000000000600052602160045260246000fd5b6004811061057757610576610537565b5b50565b600081905061058882610566565b919050565b60006105988261057a565b9050919050565b6105a88161058d565b82525050565b60006020820190506105c3600083018461059f565b92915050565b600481106105d657600080fd5b50565b6000813590506105e8816105c9565b92915050565b600060208284031215610604576106036104a7565b5b6000610612848285016105d9565b91505092915050565b60008060408385031215610632576106316104a7565b5b6000610640858286016104f5565b9250506020610651858286016105d9565b9150509250929050565b60008115159050919050565b6106708161065b565b82525050565b600060208201905061068b6000830184610667565b92915050565b61069a816104cc565b82525050565b60006060820190506106b56000830186610691565b6106c2602083018561059f565b6106cf6040830184610667565b949350505050565b600082825260208201905092915050565b7f44494452656769737472793a204164647265737320616c72656164792072656760008201527f6973746572656400000000000000000000000000000000000000000000000000602082015250565b60006107446027836106d7565b915061074f826106e8565b604082019050919050565b6000602082019050818103600083015261077381610737565b9050919050565b7f44494452656769737472793a20496e76616c696420726f6c6500000000000000600082015250565b60006107b06019836106d7565b91506107bb8261077a565b602082019050919050565b600060208201905081810360008301526107df816107a3565b905091905056fea26469706673582212200ff4c39721a643aa67c5df5042739ffa2b600621535267d3bae718b4d18f881d64736f6c63430008130033",
  "linkReferences": {},
  "deployedLinkReferences": {}
}